{
    "_format": "hh-sol-artifact-1",
    "contractName": "Transactions",
    "sourceName": "contracts/Transactions.sol",
    "abi": [
        {
            "anonymous": false,
            "inputs": [
                {
                    "indexed": false,
                    "internalType": "address",
                    "name": "from",
                    "type": "address"
                },
                {
                    "indexed": false,
                    "internalType": "address",
                    "name": "receiver",
                    "type": "address"
                },
                {
                    "indexed": false,
                    "internalType": "uint16",
                    "name": "amount",
                    "type": "uint16"
                },
                {
                    "indexed": false,
                    "internalType": "string",
                    "name": "meassage",
                    "type": "string"
                },
                {
                    "indexed": false,
                    "internalType": "uint256",
                    "name": "timestamp",
                    "type": "uint256"
                },
                {
                    "indexed": false,
                    "internalType": "string",
                    "name": "keyword",
                    "type": "string"
                }
            ],
            "name": "Transfer",
            "type": "event"
        },
        {
            "inputs": [
                {
                    "internalType": "address payable",
                    "name": "receiver",
                    "type": "address"
                },
                {
                    "internalType": "uint16",
                    "name": "amount",
                    "type": "uint16"
                },
                {
                    "internalType": "string",
                    "name": "message",
                    "type": "string"
                },
                {
                    "internalType": "string",
                    "name": "keyword",
                    "type": "string"
                }
            ],
            "name": "addToBlockChain",
            "outputs": [],
            "stateMutability": "nonpayable",
            "type": "function"
        },
        {
            "inputs": [],
            "name": "getAllTransactions",
            "outputs": [
                {
                    "components": [
                        {
                            "internalType": "address",
                            "name": "sender",
                            "type": "address"
                        },
                        {
                            "internalType": "address",
                            "name": "receiver",
                            "type": "address"
                        },
                        {
                            "internalType": "uint16",
                            "name": "amount",
                            "type": "uint16"
                        },
                        {
                            "internalType": "string",
                            "name": "meassage",
                            "type": "string"
                        },
                        {
                            "internalType": "uint256",
                            "name": "timestamp",
                            "type": "uint256"
                        },
                        {
                            "internalType": "string",
                            "name": "keyword",
                            "type": "string"
                        }
                    ],
                    "internalType": "struct Transactions.TransferStruct[]",
                    "name": "",
                    "type": "tuple[]"
                }
            ],
            "stateMutability": "view",
            "type": "function"
        },
        {
            "inputs": [],
            "name": "getTransactionCount",
            "outputs": [
                {
                    "internalType": "uint256",
                    "name": "",
                    "type": "uint256"
                }
            ],
            "stateMutability": "view",
            "type": "function"
        }
    ],
    "bytecode": "0x608060405234801561001057600080fd5b50610c6c806100206000396000f3fe608060405234801561001057600080fd5b50600436106100415760003560e01c806327506f53146100465780632e7700f01461006457806389cfa28114610082575b600080fd5b61004e61009e565b60405161005b919061090a565b60405180910390f35b61006c6102f7565b604051610079919061092c565b60405180910390f35b61009c60048036038101906100979190610614565b610300565b005b60606001805480602002602001604051908101604052809291908181526020016000905b828210156102ee57838290600052602060002090600502016040518060c00160405290816000820160009054906101000a900473ffffffffffffffffffffffffffffffffffffffff1673ffffffffffffffffffffffffffffffffffffffff1673ffffffffffffffffffffffffffffffffffffffff1681526020016001820160009054906101000a900473ffffffffffffffffffffffffffffffffffffffff1673ffffffffffffffffffffffffffffffffffffffff1673ffffffffffffffffffffffffffffffffffffffff1681526020016001820160149054906101000a900461ffff1661ffff1661ffff1681526020016002820180546101c190610b38565b80601f01602080910402602001604051908101604052809291908181526020018280546101ed90610b38565b801561023a5780601f1061020f5761010080835404028352916020019161023a565b820191906000526020600020905b81548152906001019060200180831161021d57829003601f168201915b505050505081526020016003820154815260200160048201805461025d90610b38565b80601f016020809104026020016040519081016040528092919081815260200182805461028990610b38565b80156102d65780601f106102ab576101008083540402835291602001916102d6565b820191906000526020600020905b8154815290600101906020018083116102b957829003601f168201915b505050505081525050815260200190600101906100c2565b50505050905090565b60008054905090565b60016000808282546103129190610a0e565b9250508190555060016040518060c001604052803373ffffffffffffffffffffffffffffffffffffffff1681526020018673ffffffffffffffffffffffffffffffffffffffff1681526020018561ffff16815260200184815260200142815260200183815250908060018154018082558091505060019003906000526020600020906005020160009091909190915060008201518160000160006101000a81548173ffffffffffffffffffffffffffffffffffffffff021916908373ffffffffffffffffffffffffffffffffffffffff16021790555060208201518160010160006101000a81548173ffffffffffffffffffffffffffffffffffffffff021916908373ffffffffffffffffffffffffffffffffffffffff16021790555060408201518160010160146101000a81548161ffff021916908361ffff160217905550606082015181600201908051906020019061046e9291906104df565b506080820151816003015560a08201518160040190805190602001906104959291906104df565b5050507fda3542adfb3ce43c1d6791d23a1d32e21c3b523a3f47e97da47125a34f8078c63385858542866040516104d19695949392919061089b565b60405180910390a150505050565b8280546104eb90610b38565b90600052602060002090601f01602090048101928261050d5760008555610554565b82601f1061052657805160ff1916838001178555610554565b82800160010185558215610554579182015b82811115610553578251825591602001919060010190610538565b5b5090506105619190610565565b5090565b5b8082111561057e576000816000905550600101610566565b5090565b600061059561059084610978565b610947565b9050828152602081018484840111156105ad57600080fd5b6105b8848285610af6565b509392505050565b6000813590506105cf81610c08565b92915050565b600082601f8301126105e657600080fd5b81356105f6848260208601610582565b91505092915050565b60008135905061060e81610c1f565b92915050565b6000806000806080858703121561062a57600080fd5b6000610638878288016105c0565b9450506020610649878288016105ff565b935050604085013567ffffffffffffffff81111561066657600080fd5b610672878288016105d5565b925050606085013567ffffffffffffffff81111561068f57600080fd5b61069b878288016105d5565b91505092959194509250565b60006106b383836107cf565b905092915050565b6106c481610ac0565b82525050565b6106d381610a64565b82525050565b6106e281610a64565b82525050565b60006106f3826109b8565b6106fd81856109db565b93508360208202850161070f856109a8565b8060005b8581101561074b578484038952815161072c85826106a7565b9450610737836109ce565b925060208a01995050600181019050610713565b50829750879550505050505092915050565b6000610768826109c3565b61077281856109ec565b9350610782818560208601610b05565b61078b81610bf7565b840191505092915050565b60006107a1826109c3565b6107ab81856109fd565b93506107bb818560208601610b05565b6107c481610bf7565b840191505092915050565b600060c0830160008301516107e760008601826106ca565b5060208301516107fa60208601826106ca565b50604083015161080d604086018261085f565b5060608301518482036060860152610825828261075d565b915050608083015161083a608086018261087d565b5060a083015184820360a0860152610852828261075d565b9150508091505092915050565b61086881610a88565b82525050565b61087781610a88565b82525050565b61088681610ab6565b82525050565b61089581610ab6565b82525050565b600060c0820190506108b060008301896106d9565b6108bd60208301886106bb565b6108ca604083018761086e565b81810360608301526108dc8186610796565b90506108eb608083018561088c565b81810360a08301526108fd8184610796565b9050979650505050505050565b6000602082019050818103600083015261092481846106e8565b905092915050565b6000602082019050610941600083018461088c565b92915050565b6000604051905081810181811067ffffffffffffffff8211171561096e5761096d610bc8565b5b8060405250919050565b600067ffffffffffffffff82111561099357610992610bc8565b5b601f19601f8301169050602081019050919050565b6000819050602082019050919050565b600081519050919050565b600081519050919050565b6000602082019050919050565b600082825260208201905092915050565b600082825260208201905092915050565b600082825260208201905092915050565b6000610a1982610ab6565b9150610a2483610ab6565b9250827fffffffffffffffffffffffffffffffffffffffffffffffffffffffffffffffff03821115610a5957610a58610b6a565b5b828201905092915050565b6000610a6f82610a96565b9050919050565b6000610a8182610a96565b9050919050565b600061ffff82169050919050565b600073ffffffffffffffffffffffffffffffffffffffff82169050919050565b6000819050919050565b6000610acb82610ad2565b9050919050565b6000610add82610ae4565b9050919050565b6000610aef82610a96565b9050919050565b82818337600083830152505050565b60005b83811015610b23578082015181840152602081019050610b08565b83811115610b32576000848401525b50505050565b60006002820490506001821680610b5057607f821691505b60208210811415610b6457610b63610b99565b5b50919050565b7f4e487b7100000000000000000000000000000000000000000000000000000000600052601160045260246000fd5b7f4e487b7100000000000000000000000000000000000000000000000000000000600052602260045260246000fd5b7f4e487b7100000000000000000000000000000000000000000000000000000000600052604160045260246000fd5b6000601f19601f8301169050919050565b610c1181610a76565b8114610c1c57600080fd5b50565b610c2881610a88565b8114610c3357600080fd5b5056fea2646970667358221220d2866cff49679809388a4c1a6e55aad8108f6d318dd214e758ccae7b7236ff8064736f6c63430008000033",
    "linkReferences": {},
    "deployedLinkReferences": {}
}